:0400000041EF00F0DC
:100008005B820E0135A10BEF00F00DEF00F021EF40
:1000180000F080A612EF00F016EF00F0016A012A46
:1000280017EF00F0016A01460146014680500118A9
:10003800F70B0118806E0E01359133AB26EF00F0F7
:1000480028EF00F03FEF00F07CAE2DEF00F031EF2D
:1000580000F0016A012A32EF00F0016A0132013230
:100068007C5001187F0B01187C6E0B0ED46EDB0ED2
:0E007800D36E0E01339B5B9211000FEF12F05E
:100E000000566F6C746167653A2025642E25303278
:100E100064560025643A25642025642D25642D251B
:030E20006400006B
:100E2400809688967C9E849E08EC13F02BEC13F03D
:100E34001BEC13F04FEC13F085EC0FF0000E0001E7
:100E4400BC6F000EBB6F000EC06F000EBF6F20EEB4
:100E5400DBF010EE9DF0170EDBCFE3FFE806FCE2BB
:100E6400000EC46F000EC36F000ECF6F000ED06F64
:100E7400000ED16F000ED26F000ECA6F320EC96F12
:100E8400000ED66F0C0ED56F000EDA6F0E0ED96FF2
:100E9400000EC66F050EC56F000ED46F050ED36F1E
:100EA400000ED86F0B0ED76F070EC86FE50EC76F15
:100EB400DDEC12F002C0CDF003C0CEF00001C95148
:100EC400CD5DCA51CE59D8B06AEF07F06CEF07F088
:100ED40082EF07F0DA5109E1020ED95DD8A075EF6F
:100EE40007F077EF07F085EF07F0DA5107E1050E19
:100EF400D95DD8B080EF07F082EF07F085EF07F0F7
:100F0400809686EF07F08086030EC715BD6FBE6B13
:100F1400BD51BE11D8A491EF07F093EF07F099EFFC
:100F240007F0000EA06F1D0E9F6F9DEF07F0000EDF
:100F3400A06F1C0E9F6F7CBEA2EF07F0A5EF07F019
:100F4400010EA6EF07F0000E7C6F7D6BBB517C1980
:100F540009E1BC517D19D8B4B2EF07F0B4EF07F042
:100F6400C4EF07F0BF4BC02B7CBEBBEF07F0BFEF55
:100F740007F07C6B7C2BC1EF07F000017C6B7C518C
:100F8400BB6FBC6BC05109E13C0EBF5DD8A0CDEF77
:100F940007F0CFEF07F0D5EF07F0D54BD62B000EB7
:100FA400C06F000EBF6FD6BFE1EF07F0D65109E165
:100FB4003C0ED55DD8A0E1EF07F0E3EF07F0E9EFD1
:100FC40007F0D94BDA2B000ED66F000ED56FDA512D
:100FD40009E1180ED95DD8A0F2EF07F0F4EF07F09D
:100FE400FCEF07F0000EDA6F000ED96FD34BD42B51
:100FF400C54BC62BC65109E1080EC55DD8A005EF47
:1010040008F007EF08F00BEF08F0000EC66F010EB2
:10101400C56FD85109E10D0ED75DD8A014EF08F0C3
:1010240016EF08F020EF08F0C74BC82B000ED86F5E
:10103400010ED76F000ED46F010ED36FFE0E7C6FBE
:10104400FF0E7D6FD7C07EF0D8C07FF0D8907E377A
:101054007F377C517E277D517F239D0E7E25D96E5F
:10106400000E7F21DA6ED351DE5CD451DE58D8B045
:101074003EEF08F040EF08F04EEF08F0D74BD82BC6
:10108400000ED46F010ED36F000ED06F000ECF6F21
:10109400000ED26F000ED16FD85109E10D0ED75D4D
:1010A400D8A057EF08F059EF08F063EF08F0C74BEA
:1010B400C82B000ED86F010ED76F000ED46F010E2F
:1010C400D36FD9C002F0DAC003F057EC10F0070E6A
:1010D4000001C519C611D8A472EF08F074EF08F026
:1010E400D8EF08F0070ED3257C6F000ED4217D6F56
:1010F400FE0E7E6FFF0E7F6FD7C080F0D8C081F0E8
:10110400D890803781377E5180277F5181239D0E6F
:101114008025D96E000E8121DA6E7C51DE5C7D5112
:10112400DE58D8B098EF08F09AEF08F0D8EF08F03E
:10113400030ED719D811D8A4A2EF08F0A4EF08F031
:10114400B3EF08F0C351C411D8A4ABEF08F0ADEF6E
:1011540008F0B3EF08F0D94BDA2B000EC46F010E80
:10116400C36F0A0ED719D811D8A4BBEF08F0BDEF8E
:1011740008F0D8EF08F0C351C411D8A4C4EF08F0A4
:10118400C6EF08F0D8EF08F0D905DA11D8A4CDEFEE
:1011940008F0CFEF08F0D8EF08F0D907D8A0DA07A5
:1011A400000EC46F010EC36FD8EF08F0190ED319E7
:1011B400D411D8A4E0EF08F0E2EF08F0C0EF09F092
:1011C400CF51D011D8A4E9EF08F0EBEF08F01DEFF0
:1011D40009F0C951CD5DCA51CE59D8A0F4EF08F039
:1011E400F6EF08F01DEF09F0DA5109E1060ED95DBA
:1011F400D8A0FFEF08F001EF09F01DEF09F0DA5174
:1012040007E1090ED95DD8B00AEF09F00CEF09F037
:101214001DEF09F0D9C002F0DAC003F0000E056E2C
:101224003C0E046EF5EC12F00001D5510224CF6F90
:10123400D6510320D06FD151D211D8A424EF09F094
:1012440026EF09F058EF09F0CD51C95DCE51CA59C6
:10125400D8A02FEF09F031EF09F058EF09F0DA5177
:1012640009E1060ED95DD8A03AEF09F03CEF09F088
:1012740058EF09F0DA5107E1090ED95DD8B045EF0E
:1012840009F047EF09F058EF09F0D9C002F0DAC0CD
:1012940003F0000E056E3C0E046EF5EC12F0000136
:1012A400D5510224D16FD6510320D26FCF51D1250D
:1012B4007C6FD051D2217D6FD8907D317E6F7C318F
:1012C400CB6F7EC0CCF0CBC002F0CCC003F0000EDC
:1012D400056E3C0E046E1CEC11F002C0B7F003C0A6
:1012E400B8F0B7C002F0B8C003F0FF0E056EC40E2C
:1012F400046EF5EC12F00001CB510224B56FCC5111
:101304000320B66FCB51D008B96FCC51D8A0E82ACE
:101314000208BA6FD9C002F0DAC003F0000E056EFD
:101324003C0E046EF5EC12F00001D5510224C16F9D
:10133400D6510320C26FB951C127BA51C223C1C0CB
:1013440002F0C2C003F0000E056E3C0E046E1CECED
:1013540011F002C0D9F003C0DAF0D9C002F0DAC04B
:1013640003F0FF0E056EC40E046EF5EC12F00001DE
:10137400C1510224D56FC2510320D66F840E666F0B
:10138400000E676F130E686F0E0E696FD9C06AF096
:10139400DAC06BF0D5C06CF0D6C06DF0D3C06EF07F
:1013A400D4C06FF0D7C070F0D8C071F0C7C072F06D
:1013B400C8C073F0BDEC11F0000E036E0C0EC5EC4A
:1013C40012F0840E076E000E086EABEC12F0290EBC
:1013D40000017D6F960E7C6F7F0EE82EFED77C2F6A
:1013E400FCD77D2FFAD7000E036E010EC5EC12F068
:1013F4002A0E00017C6F8D0EE82EFED77C2FFCD7C1
:1014040000D05AEF07F041EF00F043C0D9FF44C0C9
:10141400DAFFDECFF6FFDDCFF7FF000EF86E08002F
:10142400F550250AD8A419EF0AF01BEF0AF0AFEF24
:101434000BF043C0D9FF44C0DAFFDE2A000EDD22E0
:10144400000E0001FA6F000EF96FF9C059F0FAC0EE
:101454005AF0FB69FC69000E546E000E536E7BEF6C
:101464000AF0598043C0D9FF44C0DAFFDE2A000ED7
:10147400DD227BEF0AF0598234EF0AF0598434EF0D
:101484000AF0598634EF0AF0598834EF0AF0000E56
:10149400546E010E536E7BEF0AF043C0D9FF44C073
:1014A400DAFFDECFF6FFDDCFF7FF000EF86E08009F
:1014B400F550476E486A4850000AD8B464EF0AF001
:1014C40049EF0AF04750200AD8B443EF0AF0030A60
:1014D400D8B446EF0AF0080AD8B440EF0AF0060A76
:1014E400D8B433EF0AF01D0AD8B43DEF0AF049EF3F
:1014F4000AF053505410D8B482EF0AF084EF0AF083
:101504004FEF0AF059A089EF0AF08BEF0AF08CEF45
:101514000AF0599243C0D9FF44C0DAFFDECFF6FF88
:10152400DDCFF7FF000EF86E0800F5502A0AD8A4A4
:101534009EEF0AF0A0EF0AF0CAEF0AF043C0D9FF09
:1015440044C0DAFFDE2A000EDD2245C0D9FF46C0C2
:10155400DAFFDFCF47F0020EDE26DFCF48F0000EC1
:10156400DD2247C0D9FF48C0DAFFDECFF9F0DDCF76
:10157400FAF00001FABFC3EF0AF0C1EF0AF00FEF6F
:101584000BF05980F96DFA1FD8B0FA2B0FEF0BF05E
:1015940043C0D9FF44C0DAFFDECF09F0DDCF0AF043
:1015A4003DEC0DF009C0F9F00AC0FAF0E1EF0AF0E1
:1015B40043C0D9FF44C0DAFFDE2A000EDD22D00E7C
:1015C400476EFF0E486E43C0D9FF44C0DAFFDECF3A
:1015D400F6FFDDCFF7FF000EF86E0800F550496EF8
:1015E4004A6A4750492648504A224A500AE10A0E9C
:1015F400495CD8A000EF0BF003EF0BF0010E04EFF1
:101604000BF0000E556E566A55505610D8A40DEFC7
:101614000BF00FEF0BF0DAEF0AF043C0D9FF44C030
:10162400DAFFDECFF6FFDDCFF7FF000EF86E08001D
:10163400F550640AD8B421EF0BF023EF0BF037EF29
:101644000BF043C0D9FF44C0DAFFDECFF6FFDDCF95
:10165400F7FF000EF86E0800F550690AD8A435EFBC
:101664000BF037EF0BF077EF0BF043C0D9FF44C01A
:10167400DAFFDE2A000EDD2245C0D9FF46C0DAFFBC
:10168400DFCF47F0020EDE26DFCF48F0000EDD226A
:1016940047C0D9FF48C0DAFFDECF4BF0DDCF4CF0B6
:1016A400000E4CBEFF0E4D6E4E6E4F6E506E516E60
:1016B400526E41C01DF042C01EF04BC01FF04CC022
:1016C40020F04DC021F04EC022F04FC023F050C096
:1016D40024F051C025F052C026F0CDEC0BF01DC013
:1016E40041F01EC042F0CCEF0BF043C0D9FF44C020
:1016F400DAFFDECFF6FFDDCFF7FF000EF86E08004D
:10170400F550250AD8A489EF0BF08BEF0BF0A2EF6C
:101714000BF043C0D9FF44C0DAFFDE2A000EDD22FD
:10172400000E036E250E026E41C004F042C005F0A7
:10173400F2EC0FF0000E426E010E416ECCEF0BF096
:1017440043C0D9FF44C0DAFFDE2A000EDD22000EBA
:10175400426E000E416ECCEF0BF043C0D9FF44C083
:10176400DAFFDECFF6FFDDCFF7FF000EF86E0800DC
:10177400F550026E036A41C004F042C005F0F2EC79
:101784000FF043C0D9FF44C0DAFFDE2A000EDD2289
:101794009CEF0BF012001FC037F020C038F021C0BE
:1017A40039F022C03AF023C03BF024C03CF025C0FD
:1017B4003DF026C03EF03EBEE2EF0BF0E5EF0BF04D
:1017C400010EE6EF0BF0000E356E366A355036101A
:1017D400D8B4EFEF0BF0F1EF0BF001EF0CF03E1E7D
:1017E4003D1E3C1E3B1E3A1E391E381E376C000E31
:1017F400382239223A223B223C223D223E22000159
:10180400FCBF07EF0CF009EF0CF00AEF0CF0599253
:10181400FCBF17EF0CF0FC5106E1FB05D8B015EF47
:101824000CF017EF0CF01DEF0CF0000E326E010EF1
:10183400316E21EF0CF0FBC031F0FCC032F0F9C086
:1018440033F0FAC034F035503610D8A42CEF0CF035
:101854002EEF0CF035EF0CF059A433EF0CF035EF0C
:101864000CF038EF0CF03306D8A03406000E406EAE
:101874001F0E3F6E000E01011F6FBDEF0CF03F06FF
:10188400D8A04006000E3F24D96E010E4020DA6E27
:1018940037C002F038C003F039C004F03AC005F094
:1018A4003BC006F03CC007F03DC008F03EC009F064
:1018B4000A0E0A6E000E0B6E000E0C6E000E0D6EFC
:1018C400000E0E6E000E0F6E000E106E000E116EE6
:1018D400D3EC0EF002C027F003C028F004C029F0B6
:1018E40005C02AF006C02BF007C02CF008C02DF06C
:1018F40009C02EF027C014F029C015F054EC12F0E2
:101904001450300FDF6E3106D8A032063306D8A04B
:10191400340637C002F038C003F039C004F03AC0CE
:1019240005F03BC006F03CC007F03DC008F03EC0E7
:1019340009F00A0E0A6E000E0B6E000E0C6E000EFD
:101944000D6E000E0E6E000E0F6E000E106E000E69
:10195400116E0FEC0EF002C037F003C038F004C073
:1019640039F005C03AF006C03BF007C03CF008C0AF
:101974003DF009C03EF040BEC8EF0CF0405008E115
:101984003F04D8A0C8EF0CF0CAEF0CF0FAEF0CF04B
:101994003750381039103A103B103C103D103E10AF
:1019A400D8A4D7EF0CF0D9EF0CF041EF0CF032BE15
:1019B400E6EF0CF0325006E13104D8B0E4EF0CF05D
:1019C400E6EF0CF041EF0CF034BEF1EF0CF03450C4
:1019D40008E13304D8A0F1EF0CF0F3EF0CF0FAEFC8
:1019E4000CF059B2F8EF0CF0FAEF0CF041EF0CF0F8
:1019F40035503610D8A401EF0DF003EF0DF00AEFC7
:101A04000DF059A408EF0DF00AEF0DF028EF0DF0DA
:101A14003F06D8A0400635503610D8A414EF0DF078
:101A240016EF0DF01CEF0DF0000E306E2B0E2F6E26
:101A340020EF0DF0000E306E2D0E2F6E000E3F24A1
:101A4400D96E010E4020DA6E2FC0DFFF1DC012F0E8
:101A54001EC013F0000E3F24146E010E4020156EBC
:101A640033C016F034C017F0BBEC10F012C01DF0F8
:101A740013C01EF01200000E176E000E166E000E3C
:101A8400106E000E0F6E49EF0DF0094A0A2A010E7E
:101A9400156E09C0F6FF0AC0F7FF000EF86E0800C5
:101AA400F550200AD8B459EF0DF05BEF0DF07AEF42
:101AB4000DF0F70E0B6EFF0E0C6E09C0F6FF0AC098
:101AC400F7FF000EF86E0800F5500D6E0E6A0B500D
:101AD4000D260C500E220E5009E1050E0D5CD8A007
:101AE40076EF0DF078EF0DF07AEF0DF0000E156E35
:101AF40015C011F0126A11501210D8A484EF0DF021
:101B040086EF0DF047EF0DF090EF0DF0000E106E24
:101B1400010E0F6E094A0A2AC9EF0DF009C0F6FF3B
:101B24000AC0F7FF000EF86E0800F5500B6E0C6A41
:101B34000C50000AD8B4A1EF0DF0C9EF0DF00B5012
:101B44002B0AD8B48CEF0DF0060AD8B488EF0DF048
:101B5400C9EF0DF016C002F017C003F0000E056EB9
:101B64000A0E046EF5EC12F009C0F6FF0AC0F7FF86
:101B7400000EF86E0800F550025E000E035A300E97
:101B84000224166E000E0320176E8CEF0DF0D00E9B
:101B94000B6EFF0E0C6E09C0F6FF0AC0F7FF000EB5
:101BA400F86E0800F5500D6E0E6A0B500D260C50A1
:101BB4000E220E500AE10A0E0D5CD8A0E4EF0DF0DF
:101BC400E7EF0DF0010EE8EF0DF0000E136E146A4E
:101BD40013501410D8A4F1EF0DF0F3EF0DF0ACEFA7
:101BE4000DF00F501010D8A4FAEF0DF0FCEF0DF02B
:101BF4000AEF0EF016C00BF017C00CF00B1E0C1EF3
:101C04000B4A0C2A0BC009F00CC00AF00EEF0EF0C0
:101C140016C009F017C00AF01200000E136E11BEB0
:101C240018EF0EF016EF0EF02AEF0EF0111E101E34
:101C34000F1E0E1E0D1E0C1E0B1E0A6C000E0B2218
:101C44000C220D220E220F2210221122010E136EDD
:101C540009BE31EF0EF02FEF0EF043EF0EF0091E28
:101C6400081E071E061E051E041E031E026C000E1F
:101C74000322042205220622072208220922010E39
:101C8400131A20EE14F0070EDE6AE806FDE20A508D
:101C94000B100C100D100E100F1010101110D8B4E2
:101CA40056EF0EF058EF0EF0AAEF0EF0010E126E82
:101CB40066EF0EF0D8900A360B360C360D360E361B
:101CC4000F3610361136122A11AE6BEF0EF06DEF8F
:101CD4000EF05CEF0EF0D890143615361636173623
:101CE400183619361A361B360A50025C0B50035844
:101CF4000C5004580D5005580E5006580F500758F4
:101D04001050085811500958D8A08BEF0EF08DEFE1
:101D14000EF09EEF0EF00A50025E0B50035A0C5068
:101D2400045A0D50055A0E50065A0F50075A1050B7
:101D3400085A1150095A1480D890113210320F32B7
:101D44000E320D320C320B320A32122E6DEF0EF0BF
:101D54001350D8B4B0EF0EF0B2EF0EF0C2EF0EF0A5
:101D64001B1E1A1E191E181E171E161E151E146C75
:101D7400000E152216221722182219221A221B22BB
:101D840014C002F015C003F016C004F017C005F02B
:101D940018C006F019C007F01AC008F01BC009F0FB
:101DA4001200000E136E09BEDCEF0EF0DAEF0EF037
:101DB400EEEF0EF0091E081E071E061E051E041E69
:101DC400031E026C000E03220422052206220722AF
:101DD40008220922010E136E11BEF5EF0EF0F3EF87
:101DE4000EF005EF0FF0111E101E0F1E0E1E0D1E1D
:101DF4000C1E0B1E0A6C000E0B220C220D220E224E
:101E04000F22102211220A500B100C100D100E106C
:101E14000F1010101110D8B412EF0FF014EF0FF0D0
:101E24005CEF0FF0010E126E22EF0FF0D8900A361D
:101E34000B360C360D360E360F3610361136122A86
:101E440011AE27EF0FF029EF0FF018EF0FF00A5043
:101E5400025C0B5003580C5004580D5005580E509A
:101E640006580F5007581050085811500958D8A058
:101E74003EEF0FF040EF0FF050EF0FF00A50025E0C
:101E84000B50035A0C50045A0D50055A0E50065A62
:101E94000F50075A1050085A1150095AD89011324D
:101EA40010320F320E320D320C320B320A32122E35
:101EB40029EF0FF01350D8B462EF0FF064EF0FF076
:101EC40074EF0FF0091E081E071E061E051E041ED1
:101ED400031E026C000E032204220522062207229E
:101EE4000822092202C002F003C003F004C004F077
:101EF40005C005F006C006F007C007F008C008F0EA
:101F040009C009F01200839C83948296829485967A
:101F140085927B9C7B947A967A947D967D92050E2D
:101F2400086E0F0E076EF10EE82EFED7072EFCD7B3
:101F3400082EFAD700F0030E56EC11F0680E076E67
:101F4400E40EE82EFED7072EFCD700D0000E036E59
:101F5400280EC5EC12F0A00E00D0E82EFDD7000E1E
:101F6400036E280EC5EC12F0A00E00D0E82EFDD7AB
:101F7400000E036E080EC5EC12F0A00E00D0E82E81
:101F8400FDD7000E036E010EC5EC12F02A0E076E8B
:101F94008E0EE82EFED7072EFCD7000E036E060E1B
:101FA400C5EC12F0050E086E0F0E076EF10EE82E4A
:101FB400FED7072EFCD7082EFAD700F0000E036ECA
:101FC4000E0EC5EC12F0050E086E0F0E076EF10E24
:101FD400E82EFED7072EFCD7082EFAD700F0120001
:101FE40004500510D8B4F9EF0FF0FBEF0FF004EF35
:101FF40010F004500510D8A402EF10F004EF10F014
:1020040009EF10F0025055EC13F056EF10F020EEEB
:1020140004F00450D9260550DA22DE50DE10D8B47C
:1020240016EF10F018EF10F033EF10F020EE04F07C
:102034000450D9260550DA2210EE02F00450E126AD
:102044000550E222DE50E65CE650800A0A6EDE505D
:10205400800A0A58D8B031EF10F033EF10F056EF81
:1020640010F020EE02F00450D9260550DA22DECF1B
:1020740006F0DDCF07F004C0D9FF05C0DAFFDECFDC
:1020840008F0DDCF09F006500824D96E0750092066
:10209400DA6E02C0DFFF20EE02F00450D9260550AC
:1020A400DA22DE2A000EDD22120002A05CEF10F01C
:1020B4005EEF10F061EF10F07F8062EF10F07F9020
:1020C40002A267EF10F069EF10F06CEF10F07F825E
:1020D4006DEF10F07F9202A472EF10F074EF10F025
:1020E40077EF10F0798478EF10F0799402A67DEF01
:1020F40010F07FEF10F082EF10F07E8C83EF10F081
:102104007E9C02A888EF10F08AEF10F08DEF10F09B
:1021140079888EEF10F0799802AA93EF10F095EF7A
:1021240010F098EF10F0798A99EF10F0799A02ACD8
:102134009EEF10F0A0EF10F0A3EF10F07E80A4EF5C
:1021440010F07E9002AEA9EF10F0ABEF10F0AEEFFE
:1021540010F07A80AFEF10F07A9003A0B4EF10F093
:10216400B6EF10F0B9EF10F07A82BAEF10F07A926D
:10217400120059A0C0EF10F0C2EF10F0CCEF10F035
:1021840014C00BF015C00CF012C00DF013C00EF00B
:1021940032EC12F017BED1EF10F0D3EF10F0D9EFFC
:1021A40010F016C01BF017C01CF0DDEF10F0000E8D
:1021B4001C6E000E1B6E000E1A6E000E196EEFEFF1
:1021C40010F0000E036E200E026E12C004F013C055
:1021D40005F0F2EC0FF0194A1A2A1B50195C1A5038
:1021E400800A186E1C50800A1858D8A0FCEF10F012
:1021F400FEEF10F0E3EF10F059B003EF11F005EF2C
:1022040011F00FEF11F014C00BF015C00CF012C058
:102214000DF013C00EF032EC12F014C002F015C031
:1022240003F090EC12F01B500224126E1C50032099
:10223400136E1200000E076E000E066E0450051099
:10224400D8B427EF11F029EF11F051EF11F0010E7E
:10225400086E31EF11F0D89004360536082A05AE21
:1022640036EF11F038EF11F02DEF11F0D89006365B
:1022740007360450025C05500358D8A044EF11F00F
:1022840046EF11F04BEF11F00450025E0550035A73
:102294000680D89005320432082E38EF11F006C0BB
:1022A40002F007C003F01200026E02A05CEF11F00E
:1022B4005EEF11F061EF11F07A8662EF11F07A9619
:1022C40002A267EF11F069EF11F06CEF11F07A845C
:1022D4006DEF11F07A9402A472EF11F074EF11F023
:1022E40077EF11F07D8678EF11F07D9602A67DEFF1
:1022F40011F07FEF11F082EF11F07D8283EF11F086
:102304007D9244EC13F01A0EE82EFED700D0120092
:1023140062C057F063C058F0000E0001F86F000E61
:10232400F76FA8EF11F060C041F061C042F0570EA2
:10233400436E000E446E64C045F065C046F007EC81
:102344000AF041500001F7274250F82357C0F6FF26
:1023540058C0F7FF000EF86E0800F5500009D8A425
:10236400B6EF11F0B8EF11F095EF11F0F7C060F08F
:10237400F8C061F012006A0E0001746F000E756FF0
:1023840066C076F067C077F0000E796F000E786F44
:10239400000E7B6F000E7A6F760E606F000E616F19
:1023A40068C062F069C063F0740E646F000E656FFC
:1023B4008AEC11F0000178516625D96E79516721B4
:1023C400DA6E000EDF6E1200010E086E200E021887
:1023D4000310D8B4F0EF11F0F2EF11F00BEF12F09C
:1023E400F70E046EFF0E056E02C006F003C007F080
:1023F4000450062605500722075009E1050E065C25
:10240400D8A007EF12F009EF12F00BEF12F0000E54
:10241400086E08C002F0036A1200700EF66E260EF3
:10242400F76E000EF86E00EEDBF010EE18F0090007
:10243400F5CFEEFFE550E150FAE101EE00F0200E99
:10244400EE6AE806FDE100EEF3F00A0EEE6AE80635
:10245400FDE15A6A596A5B905B92000112EF07F042
:10246400000E116E000E106E43EF12F00FC002F05A
:10247400036A0DC004F00EC005F0F2EC0FF0104A30
:10248400112A10500B24D96E11500C20DA6EDF5033
:102494000F6E0F50D8A451EF12F053EF12F038EF33
:1024A40012F0120015BE61EF12F0155006E114048B
:1024B400D8B05FEF12F061EF12F06FEF12F014C0BA
:1024C40016F015C017F0161E171E164A172A16C046
:1024D40014F017C015F073EF12F014C014F015C007
:1024E40015F01200D00E046EFF0E056E02C006F049
:1024F40003C007F0045006260550072207500AE1DE
:102504000A0E065CD8A089EF12F08CEF12F0010ECF
:102514008DEF12F0000E026E036A120002C004F086
:1025240003C005F098EF12F0024A032A02C0D9FF53
:1025340003C0DAFFDF50D8A4A2EF12F0A4EF12F028
:1025440096EF12F00450025C026E05500358036EBD
:102554001200B8EF12F0010E036E07C0D9FF08C0D5
:10256400DAFFDF50C5EC12F0074A082A07C0D9FF8A
:1025740008C0DAFFDF50D8A4C2EF12F0C4EF12F0A3
:10258400ADEF12F01200066E03B002D07B9C01D0B6
:102594007B8C0650F00B046E04380F0B56EC11F0D4
:1025A40006500F0B056E055056EC11F0A00E00D02E
:1025B400E82EFDD71200608060B0E3EF12F0E5EF83
:1025C40012F0DEEF12F064CF04F0056A0450FF0845
:1025D400046E0550D8A0E82A0008056E04C002F075
:1025E40005C003F0120002500402F3CF06F0F4CF4A
:1025F40007F002500502F350072603500402F3507B
:10260400072606C002F007C003F012007F908790EF
:102614007F928792799481947E9C869C7998819804
:10262400799A819A7E9086907A9082907A92829218
:102634001200D6501F0B4009D66ED688D650F00B28
:102644000809D66ED5880B0ED46EDB0ED36ED58EEC
:10265400120081860E0192870F015899FC0E5817BB
:10266400030E5F6F60946088608E12001F001C0070
:102674001F001E001F001E001F001F001E001F0061
:102684001E001F007B841A0EE82EFED700D07B9418
:102694001A0EE82EFED700D01200F28C0E01298B00
:0826A4002B81F28E12001200DE
:020000040020DA
:10000000FF0FFF0FFF0FFF0FFF0FFF0FFF0FFF0F80
:020000040030CA
:0C000000AAFFFFFF9FFFFFFFFFFFFFFFB5
:00000001FF
