:040000003DEF00F0E0
:1000080014820E0135A10BEF00F00DEF00F021EF87
:1000180000F080A612EF00F016EF00F0016A012A46
:1000280017EF00F0016A01460146014680500118A9
:10003800F70B0118806E0E01359133AB26EF00F0F7
:1000480028EF00F03BEF00F07CAE2DEF00F031EF31
:1000580000F0016A012A32EF00F0016A0132013230
:100068007C5001187F0B01187C6E0E01339B149293
:10007800110084EF01F0809688967C9E849E4EEC59
:1000880001F071EC01F061EC01F07EEC01F0000E82
:10009800096E320E086E000E0D6E000E0C6E000E0C
:1000A8000F6E000E0E6E000E116E000E106E000E1A
:1000B800136E000E126E36EC01F002C00AF003C097
:1000C8000BF008500A5C09500B58D8A06EEF00F0EE
:1000D80070EF00F073EF00F0809674EF00F0808608
:1000E8007CBE79EF00F07CEF00F0010E7DEF00F0B0
:1000F800000E066E076A0C50061809E10D50071825
:10010800D8B489EF00F08BEF00F09AEF00F00E4AB8
:100118000F2A7CBE92EF00F096EF00F0066A062ADE
:1001280097EF00F0066A06500C6E0D6A3C0E0E182A
:100138000F10D8A4A2EF00F0A4EF00F0AAEF00F08F
:10014800104A112A000E0F6E000E0E6E3C0E10188B
:100158001110D8A4B2EF00F0B4EF00F0BAEF00F03D
:10016800124A132A000E116E000E106E180E121885
:100178001310D8A4C2EF00F0C4EF00F0C8EF00F0ED
:10018800000E136E000E126E12C002F013C003F0C0
:10019800D2EC00F05FEF00F03DEF00F002A0D7EFE7
:1001A80000F0D9EF00F0DCEF00F07F80DDEF00F029
:1001B8007F9002A2E2EF00F0E4EF00F0E7EF00F03A
:1001C8007F82E8EF00F07F9202A4EDEF00F0EFEFFE
:1001D80000F0F2EF00F07984F3EF00F0799402A6D2
:1001E800F8EF00F0FAEF00F0FDEF00F07E8CFEEF84
:1001F80000F07E9C02A803EF01F005EF01F008EF84
:1002080001F0798809EF01F0799802AA0EEF01F060
:1002180010EF01F013EF01F0798A14EF01F0799AE9
:1002280002AC19EF01F01BEF01F01EEF01F07E8028
:100238001FEF01F07E9002AE24EF01F026EF01F0EF
:1002480029EF01F07A802AEF01F07A9003A02FEFCE
:1002580001F031EF01F034EF01F07A8235EF01F06F
:100268007A921200608060B03CEF01F03EEF01F03E
:1002780037EF01F064CF04F0056A0450FF08046EFC
:100288000550D8A0E82A0008056E04C002F005C091
:1002980003F012007F9087907F92879279948194DF
:1002A8007E9C869C79988198799A819A7E9086908E
:1002B8007A9082907A9282921200D6501F0B40094F
:1002C800D66ED688D650F00B0809D66ED588240E7F
:1002D800D46E000ED36ED58E120081860E019287E1
:1002E8000F015899FC0E5817030E5F6F60946088D1
:1002F800608E1200F28C0E01298B2B81F28E120077
:0A0308001490149200013FEF00F082
:020000040020DA
:10000000FF0FFF0FFF0FFF0FFF0FFF0FFF0FFF0F80
:020000040030CA
:0C000000AAFFFFFF9FFFFFFFFFFFFFFFB5
:00000001FF
