:040000003DEF00F0E0
:1000080044820E0135A10BEF00F00DEF00F021EF57
:1000180000F080A612EF00F016EF00F0016A012A46
:1000280017EF00F0016A01460146014680500118A9
:10003800F70B0118806E0E01359133AB26EF00F0F7
:1000480028EF00F03BEF00F07CAE2DEF00F031EF31
:1000580000F0016A012A32EF00F0016A0132013230
:100068007C5001187F0B01187C6E0E01339B449263
:1000780011006DEF01F0809688967C9E849E82EC3C
:1000880001F0A4EC01F095EC01F0BDEC01F0000EDC
:10009800256E000E246E000E276E000E266E20EED2
:1000A8002CF010EE08F0170EDBCFE3FFE806FCE2B9
:1000B800000E216E320E206E000E296E000E286E84
:1000C800000E2B6E000E2A6E55EC01F002C022F0D5
:1000D80003C023F02050225C21502358D8B077EF7A
:1000E80000F079EF00F08FEF00F02B5009E1020EDD
:1000F8002A5CD8A082EF00F084EF00F092EF00F0C5
:100108002B5007E1050E2A5CD8B08DEF00F08FEF79
:1001180000F092EF00F0809693EF00F080867CBEAE
:1001280098EF00F09BEF00F0010E9CEF00F0000E3E
:10013800066E076A2450061809E125500718D8B436
:10014800A8EF00F0AAEF00F0B9EF00F0264A272A3E
:100158007CBEB1EF00F0B5EF00F0066A062AB6EFF4
:1001680000F0066A0650246E256A3C0E26182710F1
:10017800D8A4C1EF00F0C3EF00F0C9EF00F0284A9F
:10018800292A000E276E000E266E3C0E281829100C
:10019800D8A4D1EF00F0D3EF00F0D9EF00F02A4A4D
:1001A8002B2A000E296E000E286E180E2A182B1006
:1001B800D8A4E1EF00F0E3EF00F0E7EF00F0000E65
:1001C8002B6E000E2A6E2AC002F02BC003F0F1EC51
:1001D80000F068EF00F03DEF00F002A0F6EF00F04D
:1001E800F8EF00F0FBEF00F07F80FCEF00F07F906D
:1001F80002A201EF01F003EF01F006EF01F07F82A8
:1002080007EF01F07F9202A40CEF01F00EEF01F06E
:1002180011EF01F0798412EF01F0799402A617EF3B
:1002280001F019EF01F01CEF01F07E8C1DEF01F0D9
:100238007E9C02A822EF01F024EF01F027EF01F0E5
:10024800798828EF01F0799802AA2DEF01F02FEFB5
:1002580001F032EF01F0798A33EF01F0799A02ACBC
:1002680038EF01F03AEF01F03DEF01F07E803EEF0C
:1002780001F07E9002AE43EF01F045EF01F048EF48
:1002880001F07A8049EF01F07A9003A04EEF01F077
:1002980050EF01F053EF01F07A8254EF01F07A92B7
:1002A8001200608060B05BEF01F05DEF01F056EF87
:1002B80001F064CF04F0056A0450FF08046E05508D
:1002C800D8A0E82A0008056E04C002F005C003F0B3
:1002D8001200620EF66E030EF76E000EF86E00EE58
:1002E8002CF010EE18F00900F5CFEEFFE550E150C4
:1002F800FAE14490449200013FEF00F07F9087902C
:100308007F928792799481947E9C869C7998819833
:10031800799A819A7E9086907A9082907A92829247
:100328001200D6501F0B4009D66ED688D650F00B57
:100338000809D66ED588D468DB0ED36ED58E120028
:1003480081860E0192870F015899FC0E5817030EEB
:100358005F6F60946088608E12001F001C001F0091
:100368001E001F001E001F001F001E001F001E0091
:0E0378001F00F28C0E01298B2B81F28E1200D9
:020000040020DA
:10000000FF0FFF0FFF0FFF0FFF0FFF0FFF0FFF0F80
:020000040030CA
:0C000000AAFFFFFF9FFFFFFFFFFFFFFFB5
:00000001FF
