:04000000A2EFFFF07C
:020000040001F9
:10FF44000001DDEFFFF081860E0192870F015899C1
:10FF5400FC0E5817030E5F6F60946088608E120069
:10FF64007F9087907F928792799481947E9C869CDF
:10FF740079988198799A819A7E9086907A908290E5
:10FF84007A9282921200608060B0CBEFFFF0CDEFE6
:10FF9400FFF0C6EFFFF064CF03F0046A0350FF08DC
:10FFA400036E0450D8A0E82A0008046E03C001F0D0
:10FFB40004C002F0120080968896B2ECFFF0A5EC23
:10FFC400FFF0000E066E320E056EC5ECFFF001C0A8
:10FFD40007F002C008F00550075C06500858D8A086
:10FFE400F6EFFFF0F8EFFFF0FBEFFFF08096E7EF9E
:0CFFF400FFF08086E7EFFFF000EF00F068
:020000040020DA
:10000000FF0FFF0FFF0FFF0FFF0FFF0FFF0FFF0F80
:020000040030CA
:0C000000AAFFFFFF9FFFFFFFFFFFFFFFB5
:00000001FF
