:040000003DEF00F0E0
:1000080056820E0135A10BEF00F00DEF00F021EF45
:1000180000F080A612EF00F016EF00F0016A012A46
:1000280017EF00F0016A01460146014680500118A9
:10003800F70B0118806E0E01359133AB26EF00F0F7
:1000480028EF00F03BEF00F07CAE2DEF00F031EF31
:1000580000F0016A012A32EF00F0016A0132013230
:100068007C5001187F0B01187C6E0E01339B569251
:10007800110038EF02F0809688967C9E849E4DECA5
:1000880002F06FEC02F060EC02F088EC02F0000E77
:100098002D6E000E2C6E000E336E000E326E20EEAA
:1000A8003EF010EE0EF0170EDBCFE3FFE806FCE2A1
:1000B800000E396E000E386E000E276E320E266E58
:1000C800000E356E000E346E000E3B6E000E3A6E5A
:1000D800000E296E000E286E000E376E000E366E6A
:1000E800000E3D6E000E3C6E000E316E000E306E3E
:1000F80020EC02F002C02AF003C02BF026502A5C44
:1001080027502B58D8B08BEF00F08DEF00F0A3EFFD
:1001180000F03B5009E1020E3A5CD8A096EF00F0DF
:1001280098EF00F0A6EF00F03B5007E1050E3A5CAF
:10013800D8B0A1EF00F0A3EF00F0A6EF00F0809692
:10014800A7EF00F080867CBEACEF00F0AFEF00F0C8
:10015800010EB0EF00F0000E066E076A2C5006186C
:1001680009E12D500718D8B4BCEF00F0BEEF00F03D
:10017800CDEF00F0324A332A7CBEC5EF00F0C9EF5C
:1001880000F0066A062ACAEF00F0066A06502C6ECE
:100198002D6A3C0E32183310D8A4D5EF00F0D7EFF3
:1001A80000F0DDEF00F0344A352A000E336E000E01
:1001B800326E3C0E34183510D8A4E5EF00F0E7EFA6
:1001C80000F0EDEF00F03A4A3B2A000E356E000EC3
:1001D800346E180E3A183B10D8A4F5EF00F0F7EF7C
:1001E80000F0FBEF00F0000E3B6E000E3A6E3AC0D6
:1001F80002F03BC003F0BCEC01F0030E30142E6E8D
:100208002F6A2E502F10D8A40CEF01F00EEF01F03A
:1002180014EF01F0000E116E1D0E106E18EF01F0B4
:10022800000E116E1C0E106EFE0E066EFF0E076E8F
:100238003CC008F03DC009F0D89008360936065091
:100248000826075009220E0E0824D96E000E092030
:10025800DA6E3650DE5C3750DE58D8B036EF01F033
:1002680038EF01F042EF01F03C4A3D2A000E376EAC
:10027800010E366E000E396E000E386E3D5009E1E3
:100288000D0E3C5CD8A04BEF01F04DEF01F053EFA1
:1002980001F0304A312A000E3D6E010E3C6E070E09
:1002A80028182910D8A45BEF01F05DEF01F07CEF6E
:1002B80000F0070E3624066E000E3720076EFE0E7D
:1002C800086EFF0E096E3CC00AF03DC00BF0D890D6
:1002D8000A360B3608500A2609500B220E0E0A243D
:1002E800D96E000E0B20DA6E0650DE5C0750DE5821
:1002F800D8B081EF01F083EF01F07CEF00F0030E3E
:100308003C183D10D8A48BEF01F08DEF01F09CEF65
:1003180001F038503910D8A494EF01F096EF01F0AD
:100328009CEF01F03A4A3B2A000E396E010E386EF6
:100338000A0E3C183D10D8A4A4EF01F0A6EF01F076
:100348007CEF00F038503910D8A4ADEF01F0AFEFD2
:1003580001F0B8EF01F03A06D8A03B06000E396E5E
:10036800010E386E7CEF00F07CEF00F03DEF00F0FE
:1003780002A0C1EF01F0C3EF01F0C6EF01F07F80EA
:10038800C7EF01F07F9002A2CCEF01F0CEEF01F0B1
:10039800D1EF01F07F82D2EF01F07F9202A4D7EF74
:1003A80001F0D9EF01F0DCEF01F07984DDEF01F025
:1003B800799402A6E2EF01F0E4EF01F0E7EF01F033
:1003C8007E8CE8EF01F07E9C02A8EDEF01F0EFEFE4
:1003D80001F0F2EF01F07988F3EF01F0799802AAC1
:1003E800F8EF01F0FAEF01F0FDEF01F0798AFEEF86
:1003F80001F0799A02AC03EF02F005EF02F008EF82
:1004080002F07E8009EF02F07E9002AE0EEF02F05D
:1004180010EF02F013EF02F07A8014EF02F07A90F6
:1004280003A019EF02F01BEF02F01EEF02F07A8230
:100438001FEF02F07A921200608060B026EF02F09F
:1004480028EF02F021EF02F064CF04F0056A0450AF
:10045800FF08046E0550D8A0E82A0008056E04C0FD
:1004680002F005C003F01200F80EF66E040EF76EE7
:10047800000EF86E00EE3EF010EE18F00900F5CF11
:10048800EEFFE550E150FAE15690569200013FEF39
:1004980000F07F9087907F928792799481947E9CD8
:1004A800869C79988198799A819A7E9086907A909C
:1004B80082907A9282921200D6501F0B4009D66E13
:1004C800D688D650F00B0809D66ED588D468DB0ECE
:1004D800D36ED58E120081860E0192870F0158992E
:1004E800FC0E5817030E5F6F60946088608E1200D0
:1004F8001F001C001F001E001F001E001F001F0001
:100508001E001F001E001F00F28C0E01298B2B817C
:04051800F28E12004D
:020000040020DA
:10000000FF0FFF0FFF0FFF0FFF0FFF0FFF0FFF0F80
:020000040030CA
:0C000000AAFFFFFF9FFFFFFFFFFFFFFFB5
:00000001FF
