:040000003DEF00F0E0
:1000080014820E0135A10BEF00F00DEF00F021EF87
:1000180000F080A612EF00F016EF00F0016A012A46
:1000280017EF00F0016A01460146014680500118A9
:10003800F70B0118806E0E01359133AB26EF00F0F7
:1000480028EF00F03BEF00F07CAE2DEF00F031EF31
:1000580000F0016A012A32EF00F0016A0132013230
:100068007C5001187F0B01187C6E0E01339B149293
:1000780011009AEF01F0809688967C9E849E64EC2D
:1000880001F087EC01F077EC01F094EC01F0000E40
:100098000D6E000E0C6E000E0F6E000E0E6E000E32
:1000A800096E320E086E000E116E000E106E000EF4
:1000B800136E000E126E4CEC01F002C00AF003C081
:1000C8000BF008500A5C09500B58D8B06EEF00F0DE
:1000D80070EF00F086EF00F0135009E1020E125C99
:1000E800D8A079EF00F07BEF00F089EF00F0135013
:1000F80007E1050E125CD8B084EF00F086EF00F03F
:1001080089EF00F080968AEF00F080867CBE8FEF42
:1001180000F092EF00F0010E93EF00F0000E066E73
:10012800076A0C50061809E10D500718D8B49FEF5C
:1001380000F0A1EF00F0B0EF00F00E4A0F2A7CBEED
:10014800A8EF00F0ACEF00F0066A062AADEF00F069
:10015800066A06500C6E0D6A3C0E0E180F10D8A4D5
:10016800B8EF00F0BAEF00F0C0EF00F0104A112A23
:10017800000E0F6E000E0E6E3C0E10181110D8A453
:10018800C8EF00F0CAEF00F0D0EF00F0124A132ACF
:10019800000E116E000E106E180E12181310D8A44F
:1001A800D8EF00F0DAEF00F0DEEF00F0000E136E8B
:1001B800000E126E12C002F013C003F0E8EC00F05B
:1001C8005FEF00F03DEF00F002A0EDEF00F0EFEF81
:1001D80000F0F2EF00F07F80F3EF00F07F9002A2D2
:1001E800F8EF00F0FAEF00F0FDEF00F07F82FEEF8D
:1001F80000F07F9202A403EF01F005EF01F008EF91
:1002080001F0798409EF01F0799402A60EEF01F06C
:1002180010EF01F013EF01F07E8C14EF01F07E9CDB
:1002280002A819EF01F01BEF01F01EEF01F0798829
:100238001FEF01F0799802AA24EF01F026EF01F0F0
:1002480029EF01F0798A2AEF01F0799A02AC2FEFB1
:1002580001F031EF01F034EF01F07E8035EF01F06D
:100268007E9002AE3AEF01F03CEF01F03FEF01F073
:100278007A8040EF01F07A9003A045EF01F047EF54
:1002880001F04AEF01F07A824BEF01F07A92120006
:10029800608060B052EF01F054EF01F04DEF01F0D3
:1002A80064CF04F0056A0450FF08046E0550D8A016
:1002B800E82A0008056E04C002F005C003F0120029
:1002C8007F9087907F928792799481947E9C869C78
:1002D80079988198799A819A7E9086907A9082907E
:1002E8007A9282921200D6501F0B4009D66ED68899
:1002F800D650F00B0809D66ED588240ED46E000EA1
:10030800D36ED58E120081860E0192870F015899FF
:10031800FC0E5817030E5F6F60946088608E1200A1
:10032800F28C0E01298B2B81F28E120014901492FC
:0603380000013FEF00F0A0
:020000040020DA
:10000000FF0FFF0FFF0FFF0FFF0FFF0FFF0FFF0F80
:020000040030CA
:0C000000AAFFFFFF9FFFFFFFFFFFFFFFB5
:00000001FF
