:0400000041EF00F0DC
:100008005B820E0135A10BEF00F00DEF00F021EF40
:1000180000F080A612EF00F016EF00F0016A012A46
:1000280017EF00F0016A01460146014680500118A9
:10003800F70B0118806E0E01359133AB26EF00F0F7
:1000480028EF00F03FEF00F07CAE2DEF00F031EF2D
:1000580000F0016A012A32EF00F0016A0132013230
:100068007C5001187F0B01187C6E0B0ED46EDB0ED2
:0E007800D36E0E01339B5B921100F4EF11F07A
:100E000000566F6C746167653A2025642E25303278
:100E100064560025643A25642025642D25642D251B
:030E20006400006B
:100E2400809688967C9E849EEDEC12F010EC13F074
:100E340000EC13F034EC13F06AEC0FF0000E000138
:100E4400BA6F000EB96F000EBE6F000EBD6F20EEBC
:100E5400D7F010EE9DF0170EDBCFE3FFE806FCE2BF
:100E6400000EC66F000EC56F000ECB6F000ECC6F68
:100E7400000ECD6F000ECE6F000EC86F320EC76F1E
:100E8400000ED26F270ED16F000ED66F000ED56FF5
:100E9400000EC26F010EC16F000ED06F080ECF6F2F
:100EA400000ED46F0B0ED36F070EC46FE50EC36F25
:100EB400C2EC12F002C0C9F003C0CAF00001C7516D
:100EC400C95DC851CA59D8B06AEF07F06CEF07F092
:100ED40082EF07F0D65109E1020ED55DD8A075EF77
:100EE40007F077EF07F085EF07F0D65107E1050E1D
:100EF400D55DD8B080EF07F082EF07F085EF07F0FB
:100F0400809686EF07F08086030EC315BB6FBC6B1B
:100F1400BB51BC11D8A491EF07F093EF07F099EF00
:100F240007F0000EA06F1D0E9F6F9DEF07F0000EDF
:100F3400A06F1C0E9F6F7CBEA2EF07F0A5EF07F019
:100F4400010EA6EF07F0000E7C6F7D6BB9517C1982
:100F540009E1BA517D19D8B4B2EF07F0B4EF07F044
:100F6400C4EF07F0BD4BBE2B7CBEBBEF07F0BFEF59
:100F740007F07C6B7C2BC1EF07F000017C6B7C518C
:100F8400B96FBA6BBE5109E13C0EBD5DD8A0CDEF7F
:100F940007F0CFEF07F0D5EF07F0D14BD22B000EBF
:100FA400BE6F000EBD6FD2BFE1EF07F0D25109E171
:100FB4003C0ED15DD8A0E1EF07F0E3EF07F0E9EFD5
:100FC40007F0D54BD62B000ED26F000ED16FD65141
:100FD40009E1180ED55DD8A0F2EF07F0F4EF07F0A1
:100FE400FCEF07F0000ED66F000ED56FCF4BD02B61
:100FF400C14BC22BC25109E1080EC15DD8A005EF57
:1010040008F007EF08F00BEF08F0000EC26F010EB6
:10101400C16FD45109E10D0ED35DD8A014EF08F0CF
:1010240016EF08F020EF08F0C34BC42B000ED46F6A
:10103400010ED36F000ED06F010ECF6FFE0E7C6FCA
:10104400FF0E7D6FD3C07EF0D4C07FF0D8907E3782
:101054007F377C517E277D517F239D0E7E25D96E5F
:10106400000E7F21DA6ECF51DE5CD051DE58D8B04D
:101074003EEF08F040EF08F052EF08F0D34BD42BCA
:10108400000ED06F010ECF6F000EC66F000EC56F3D
:10109400000ECC6F000ECB6F000ECE6F000ECD6F26
:1010A400D45109E10D0ED35DD8A05BEF08F05DEFDC
:1010B40008F067EF08F0C34BC42B000ED46F010E89
:1010C400D36F000ED06F010ECF6FD5C002F0D6C023
:1010D40003F03CEC10F0070E0001C119C211D8A4B2
:1010E40076EF08F078EF08F0DCEF08F0070ECF2574
:1010F4007C6F000ED0217D6FFE0E7E6FFF0E7F6F22
:10110400D3C080F0D4C081F0D890803781377E512D
:1011140080277F5181239D0E8025D96E000E812169
:10112400DA6E7C51DE5C7D51DE58D8B09CEF08F05D
:101134009EEF08F0DCEF08F0030ED319D411D8A405
:10114400A6EF08F0A8EF08F0B7EF08F0C551C611F4
:10115400D8A4AFEF08F0B1EF08F0B7EF08F0D54B23
:10116400D62B000EC66F010EC56F0A0ED319D4110B
:10117400D8A4BFEF08F0C1EF08F0DCEF08F0C551C8
:10118400C611D8A4C8EF08F0CAEF08F0DCEF08F0E5
:10119400D505D611D8A4D1EF08F0D3EF08F0DCEFD1
:1011A40008F0D507D8A0D607000EC66F010EC56F8C
:1011B400DCEF08F0190ECF19D011D8A4E4EF08F031
:1011C400E6EF08F0A5EF09F0CB51CC11D8A4EDEF70
:1011D40008F0EFEF08F021EF09F0C751C95DC851DD
:1011E400CA59D8A0F8EF08F0FAEF08F021EF09F097
:1011F400D65109E1050ED55DD8A003EF09F005EF3E
:1012040009F021EF09F0D65107E1090ED55DD8B0F8
:101214000EEF09F010EF09F021EF09F0D5C002F04C
:10122400D6C003F0000E056E3C0E046EDAEC12F02C
:101234000001D1510224CB6FD2510320CC6FCD5188
:10124400CE11D8A428EF09F02AEF09F05CEF09F0D9
:10125400C951C75DCA51C859D8A033EF09F035EF59
:1012640009F05CEF09F0D65109E1100ED55DD8A064
:101274003EEF09F040EF09F05CEF09F0D65107E1C9
:10128400160ED55DD8B049EF09F04BEF09F05CEFCD
:1012940009F0D5C002F0D6C003F0000E056E3C0E76
:1012A400046EDAEC12F00001D1510224CD6FD25158
:1012B4000320CE6FCB51CD257C6FCC51CE217D6FD9
:1012C400D8907D317E6F7C31B56F7EC0B6F0B5515C
:1012D400D008B76FB651D8A0E82A0208B86FD5C0B5
:1012E40002F0D6C003F0000E056E3C0E046EDAEC7C
:1012F40012F00001D1510224BF6FD2510320C06FFC
:10130400B751BF27B851C023BFC002F0C0C003F01B
:10131400000E056E3C0E046E01EC11F002C0D5F017
:1013240003C0D6F0D5C002F0D6C003F0FF0E056EA0
:10133400C40E046EDAEC12F00001BF510224D16F26
:10134400C0510320D26F840E666F000E676F130EB8
:10135400686F0E0E696FD5C06AF0D6C06BF0D1C04D
:101364006CF0D2C06DF0CFC06EF0D0C06FF0D3C0BF
:1013740070F0D4C071F0C3C072F0C4C073F0A2ECBA
:1013840011F0000E036E0C0EAAEC12F0840E076E20
:10139400000E086E90EC12F0290E00017D6F960E7F
:1013A4007C6F7F0EE82EFED77C2FFCD77D2FFAD7DB
:1013B400000E036E010EAAEC12F02A0E00017C6FDF
:1013C4008D0EE82EFED77C2FFCD700D05AEF07F005
:1013D40041EF00F043C0D9FF44C0DAFFDECFF6FF8F
:1013E400DDCFF7FF000EF86E0800F550250AD8A4EB
:1013F400FEEF09F000EF0AF094EF0BF043C0D9FFC1
:1014040044C0DAFFDE2A000EDD22000E0001F66F72
:10141400000EF56FF5C059F0F6C05AF0F769F86997
:10142400000E546E000E536E60EF0AF0598043C0F4
:10143400D9FF44C0DAFFDE2A000EDD2260EF0AF095
:10144400598219EF0AF0598419EF0AF0598619EFF5
:101454000AF0598819EF0AF0000E546E010E536E0B
:1014640060EF0AF043C0D9FF44C0DAFFDECFF6FFD5
:10147400DDCFF7FF000EF86E0800F550476E486A9E
:101484004850000AD8B449EF0AF02EEF0AF047504A
:10149400200AD8B428EF0AF0030AD8B42BEF0AF0D4
:1014A400080AD8B425EF0AF0060AD8B418EF0AF0EF
:1014B4001D0AD8B422EF0AF02EEF0AF0535054104C
:1014C400D8B467EF0AF069EF0AF034EF0AF059A0D4
:1014D4006EEF0AF070EF0AF071EF0AF0599243C010
:1014E400D9FF44C0DAFFDECFF6FFDDCFF7FF000EF1
:1014F400F86E0800F5502A0AD8A483EF0AF085EFA5
:101504000AF0AFEF0AF043C0D9FF44C0DAFFDE2A85
:10151400000EDD2245C0D9FF46C0DAFFDFCF47F019
:10152400020EDE26DFCF48F0000EDD2247C0D9FFD1
:1015340048C0DAFFDECFF5F0DDCFF6F00001F6BFEC
:10154400A8EF0AF0A6EF0AF0F4EF0AF05980F56D5F
:10155400F61FD8B0F62BF4EF0AF043C0D9FF44C00D
:10156400DAFFDECF09F0DDCF0AF022EC0DF009C07E
:10157400F5F00AC0F6F0C6EF0AF043C0D9FF44C044
:10158400DAFFDE2A000EDD22D00E476EFF0E486E13
:1015940043C0D9FF44C0DAFFDECFF6FFDDCFF7FF4B
:1015A400000EF86E0800F550496E4A6A4750492605
:1015B40048504A224A500AE10A0E495CD8A0E5EF95
:1015C4000AF0E8EF0AF0010EE9EF0AF0000E556E9A
:1015D400566A55505610D8A4F2EF0AF0F4EF0AF008
:1015E400BFEF0AF043C0D9FF44C0DAFFDECFF6FFF5
:1015F400DDCFF7FF000EF86E0800F550640AD8B48A
:1016040006EF0BF008EF0BF01CEF0BF043C0D9FF13
:1016140044C0DAFFDECFF6FFDDCFF7FF000EF86E31
:101624000800F550690AD8A41AEF0BF01CEF0BF070
:101634005CEF0BF043C0D9FF44C0DAFFDE2A000E92
:10164400DD2245C0D9FF46C0DAFFDFCF47F0020EE6
:10165400DE26DFCF48F0000EDD2247C0D9FF48C0A8
:10166400DAFFDECF4BF0DDCF4CF0000E4CBEFF0EA8
:101674004D6E4E6E4F6E506E516E526E41C01DF0E7
:1016840042C01EF04BC01FF04CC020F04DC021F0F2
:101694004EC022F04FC023F050C024F051C025F0BA
:1016A40052C026F0B2EC0BF01DC041F01EC042F057
:1016B400B1EF0BF043C0D9FF44C0DAFFDECFF6FF31
:1016C400DDCFF7FF000EF86E0800F550250AD8A408
:1016D4006EEF0BF070EF0BF087EF0BF043C0D9FF08
:1016E40044C0DAFFDE2A000EDD22000E036E250E52
:1016F400026E41C004F042C005F0D7EC0FF0000EBA
:10170400426E010E416EB1EF0BF043C0D9FF44C0ED
:10171400DAFFDE2A000EDD22000E426E000E416E5C
:10172400B1EF0BF043C0D9FF44C0DAFFDECFF6FFC0
:10173400DDCFF7FF000EF86E0800F550026E036A65
:1017440041C004F042C005F0D7EC0FF043C0D9FF0C
:1017540044C0DAFFDE2A000EDD2281EF0BF0120016
:101764001FC037F020C038F021C039F022C03AF051
:1017740023C03BF024C03CF025C03DF026C03EF021
:101784003EBEC7EF0BF0CAEF0BF0010ECBEF0BF030
:10179400000E356E366A35503610D8B4D4EF0BF0DF
:1017A400D6EF0BF0E6EF0BF03E1E3D1E3C1E3B1E3B
:1017B4003A1E391E381E376C000E382239223A225E
:1017C4003B223C223D223E220001F8BFECEF0BF00D
:1017D400EEEF0BF0EFEF0BF05992F8BFFCEF0BF0CC
:1017E400F85106E1F705D8B0FAEF0BF0FCEF0BF077
:1017F40002EF0CF0000E326E010E316E06EF0CF0AB
:10180400F7C031F0F8C032F0F5C033F0F6C034F070
:1018140035503610D8A411EF0CF013EF0CF01AEF7A
:101824000CF059A418EF0CF01AEF0CF01DEF0CF0AB
:101834003306D8A03406000E406E1F0E3F6E000E15
:1018440001011F6FA2EF0CF03F06D8A04006000E66
:101854003F24D96E010E4020DA6E37C002F038C042
:1018640003F039C004F03AC005F03BC006F03CC0B8
:1018740007F03DC008F03EC009F00A0E0A6E000EE3
:101884000B6E000E0C6E000E0D6E000E0E6E000E32
:101894000F6E000E106E000E116EB8EC0EF002C04A
:1018A40027F003C028F004C029F005C02AF006C0C0
:1018B4002BF007C02CF008C02DF009C02EF027C073
:1018C40014F029C015F039EC12F01450300FDF6E0B
:1018D4003106D8A032063306D8A0340637C002F049
:1018E40038C003F039C004F03AC005F03BC006F03C
:1018F4003CC007F03DC008F03EC009F00A0E0A6E75
:10190400000E0B6E000E0C6E000E0D6E000E0E6EB1
:10191400000E0F6E000E106E000E116EF4EC0DF042
:1019240002C037F003C038F004C039F005C03AF003
:1019340006C03BF007C03CF008C03DF009C03EF0D3
:1019440040BEADEF0CF0405008E13F04D8A0ADEF2D
:101954000CF0AFEF0CF0DFEF0CF03750381039100B
:101964003A103B103C103D103E10D8A4BCEF0CF0D4
:10197400BEEF0CF026EF0CF032BECBEF0CF0325081
:1019840006E13104D8B0C9EF0CF0CBEF0CF026EF30
:101994000CF034BED6EF0CF0345008E13304D8A078
:1019A400D6EF0CF0D8EF0CF0DFEF0CF059B2DDEF0E
:1019B4000CF0DFEF0CF026EF0CF035503610D8A405
:1019C400E6EF0CF0E8EF0CF0EFEF0CF059A4EDEFBC
:1019D4000CF0EFEF0CF00DEF0DF03F06D8A0400631
:1019E40035503610D8A4F9EF0CF0FBEF0CF001EFF2
:1019F4000DF0000E306E2B0E2F6E05EF0DF0000E65
:101A0400306E2D0E2F6E000E3F24D96E010E402035
:101A1400DA6E2FC0DFFF1DC012F01EC013F0000EDF
:101A24003F24146E010E4020156E33C016F034C0EE
:101A340017F0A0EC10F012C01DF013C01EF012003D
:101A4400000E176E000E166E000E106E000E0F6E56
:101A54002EEF0DF0094A0A2A010E156E09C0F6FF91
:101A64000AC0F7FF000EF86E0800F550200AD8B43B
:101A74003EEF0DF040EF0DF05FEF0DF0F70E0B6E43
:101A8400FF0E0C6E09C0F6FF0AC0F7FF000EF86ED9
:101A94000800F5500D6E0E6A0B500D260C500E22E8
:101AA4000E5009E1050E0D5CD8A05BEF0DF05DEF63
:101AB4000DF05FEF0DF0000E156E15C011F0126AF7
:101AC40011501210D8A469EF0DF06BEF0DF02CEF4C
:101AD4000DF075EF0DF0000E106E010E0F6E094A39
:101AE4000A2AAEEF0DF009C0F6FF0AC0F7FF000E98
:101AF400F86E0800F5500B6E0C6A0C50000AD8B44E
:101B040086EF0DF0AEEF0DF00B502B0AD8B471EF49
:101B14000DF0060AD8B46DEF0DF0AEEF0DF016C05F
:101B240002F017C003F0000E056E0A0E046EDAEC24
:101B340012F009C0F6FF0AC0F7FF000EF86E0800A5
:101B4400F550025E000E035A300E0224166E000E8B
:101B54000320176E71EF0DF0D00E0B6EFF0E0C6E9E
:101B640009C0F6FF0AC0F7FF000EF86E0800F55032
:101B74000D6E0E6A0B500D260C500E220E500AE10B
:101B84000A0E0D5CD8A0C9EF0DF0CCEF0DF0010EDC
:101B9400CDEF0DF0000E136E146A13501410D8A478
:101BA400D6EF0DF0D8EF0DF091EF0DF00F501010AF
:101BB400D8A4DFEF0DF0E1EF0DF0EFEF0DF016C05C
:101BC4000BF017C00CF00B1E0C1E0B4A0C2A0BC09A
:101BD40009F00CC00AF0F3EF0DF016C009F017C0BD
:101BE4000AF01200000E136E11BEFDEF0DF0FBEFB4
:101BF4000DF00FEF0EF0111E101E0F1E0E1E0D1E07
:101C04000C1E0B1E0A6C000E0B220C220D220E223F
:101C14000F2210221122010E136E09BE16EF0EF0D0
:101C240014EF0EF028EF0EF0091E081E071E061E04
:101C3400051E041E031E026C000E0322042205224C
:101C44000622072208220922010E131A20EE14F09C
:101C5400070EDE6AE806FDE20A500B100C100D10A8
:101C64000E100F1010101110D8B43BEF0EF03DEF12
:101C74000EF08FEF0EF0010E126E4BEF0EF0D890B7
:101C84000A360B360C360D360E360F361036113634
:101C9400122A11AE50EF0EF052EF0EF041EF0EF09B
:101CA400D8901436153616361736183619361A36AD
:101CB4001B360A50025C0B5003580C5004580D504C
:101CC40005580E5006580F50075810500858115018
:101CD4000958D8A070EF0EF072EF0EF083EF0EF0FB
:101CE4000A50025E0B50035A0C50045A0D50055A08
:101CF4000E50065A0F50075A1050085A1150095ADC
:101D04001480D890113210320F320E320D320C3250
:101D14000B320A32122E52EF0EF01350D8B495EF54
:101D24000EF097EF0EF0A7EF0EF01B1E1A1E191EF1
:101D3400181E171E161E151E146C000E15221622D0
:101D44001722182219221A221B2214C002F015C0CD
:101D540003F016C004F017C005F018C006F019C04F
:101D640007F01AC008F01BC009F01200000E136E31
:101D740009BEC1EF0EF0BFEF0EF0D3EF0EF0091E57
:101D8400081E071E061E051E041E031E026C000EFE
:101D94000322042205220622072208220922010E18
:101DA400136E11BEDAEF0EF0D8EF0EF0EAEF0EF07C
:101DB400111E101E0F1E0E1E0D1E0C1E0B1E0A6C75
:101DC400000E0B220C220D220E220F2210221122B1
:101DD4000A500B100C100D100E100F1010101110D3
:101DE400D8B4F7EF0EF0F9EF0EF041EF0FF0010E5B
:101DF400126E07EF0FF0D8900A360B360C360D36FC
:101E04000E360F3610361136122A11AE0CEF0FF0C3
:101E14000EEF0FF0FDEF0EF00A50025C0B5003586A
:101E24000C5004580D5005580E5006580F500758C2
:101E34001050085811500958D8A023EF0FF025EF7F
:101E44000FF035EF0FF00A50025E0B50035A0C509E
:101E5400045A0D50055A0E50065A0F50075A105086
:101E6400085A1150095AD890113210320F320E32DA
:101E74000D320C320B320A32122E0EEF0FF01350C9
:101E8400D8B447EF0FF049EF0FF059EF0FF0091EE8
:101E9400081E071E061E051E041E031E026C000EED
:101EA400032204220522062207220822092202C054
:101EB40002F003C003F004C004F005C005F006C03E
:101EC40006F007C007F008C008F009C009F01200C6
:101ED400839C839482968294859685927B9C7B9442
:101EE4007A967A947D967D92050E086E0F0E076E93
:101EF400F10EE82EFED7072EFCD7082EFAD700F0F5
:101F0400030E3BEC11F0680E076EE40EE82EFED7CC
:101F1400072EFCD700D0000E036E280EAAEC12F098
:101F2400A00E00D0E82EFDD7000E036E280EAAECFA
:101F340012F0A00E00D0E82EFDD7000E036E080E9E
:101F4400AAEC12F0A00E00D0E82EFDD7000E036E0E
:101F5400010EAAEC12F02A0E076E8E0EE82EFED7A2
:101F6400072EFCD7000E036E060EAAEC12F0050E27
:101F7400086E0F0E076EF10EE82EFED7072EFCD763
:101F8400082EFAD700F0000E036E0E0EAAEC12F023
:101F9400050E086E0F0E076EF10EE82EFED7072E03
:101FA400FCD7082EFAD700F0120004500510D8B45C
:101FB400DEEF0FF0E0EF0FF0E9EF0FF00450051043
:101FC400D8A4E7EF0FF0E9EF0FF0EEEF0FF00250B7
:101FD4003AEC13F03BEF10F020EE04F00450D92655
:101FE4000550DA22DE50DE10D8B4FBEF0FF0FDEF1F
:101FF4000FF018EF10F020EE04F00450D92605502D
:10200400DA2210EE02F00450E1260550E222DE50FE
:10201400E65CE650800A0A6EDE50800A0A58D8B0A0
:1020240016EF10F018EF10F03BEF10F020EE02F076
:102034000450D9260550DA22DECF06F0DDCF07F0B2
:1020440004C0D9FF05C0DAFFDECF08F0DDCF09F008
:1020540006500824D96E07500920DA6E02C0DFFF4B
:1020640020EE02F00450D9260550DA22DE2A000EB2
:10207400DD22120002A041EF10F043EF10F046EF12
:1020840010F07F8047EF10F07F9002A24CEF10F029
:102094004EEF10F051EF10F07F8252EF10F07F926C
:1020A40002A457EF10F059EF10F05CEF10F07984B0
:1020B4005DEF10F0799402A662EF10F064EF10F077
:1020C40067EF10F07E8C68EF10F07E9C02A86DEF35
:1020D40010F06FEF10F072EF10F0798873EF10F0DA
:1020E400799802AA78EF10F07AEF10F07DEF10F0F3
:1020F400798A7EEF10F0799A02AC83EF10F085EFC5
:1021040010F088EF10F07E8089EF10F07E9002AE20
:102114008EEF10F090EF10F093EF10F07A8094EFC0
:1021240010F07A9003A099EF10F09BEF10F09EEF5F
:1021340010F07A829FEF10F07A92120059A0A5EF66
:1021440010F0A7EF10F0B1EF10F014C00BF015C0B1
:102154000CF012C00DF013C00EF017EC12F017BE05
:10216400B6EF10F0B8EF10F0BEEF10F016C01BF091
:1021740017C01CF0C2EF10F0000E1C6E000E1B6E98
:10218400000E1A6E000E196ED4EF10F0000E036EDE
:10219400200E026E12C004F013C005F0D7EC0FF04D
:1021A400194A1A2A1B50195C1A50800A186E1C50BE
:1021B400800A1858D8A0E1EF10F0E3EF10F0C8EF50
:1021C40010F059B0E8EF10F0EAEF10F0F4EF10F06F
:1021D40014C00BF015C00CF012C00DF013C00EF0BB
:1021E40017EC12F014C002F015C003F075EC12F0F5
:1021F4001B500224126E1C500320136E1200000E9A
:10220400076E000E066E04500510D8B40CEF11F0E2
:102214000EEF11F036EF11F0010E086E16EF11F00B
:10222400D89004360536082A05AE1BEF11F01DEFD1
:1022340011F012EF11F0D890063607360450025C04
:1022440005500358D8A029EF11F02BEF11F030EF0F
:1022540011F00450025E0550035A0680D8900532EE
:102264000432082E1DEF11F006C002F007C003F07F
:102274001200026E02A041EF11F043EF11F046EF9D
:1022840011F07A8647EF11F07A9602A24CEF11F022
:102294004EEF11F051EF11F07A8452EF11F07A946D
:1022A40002A457EF11F059EF11F05CEF11F07D86A5
:1022B4005DEF11F07D9602A662EF11F064EF11F06C
:1022C40067EF11F07D8268EF11F07D9229EC13F035
:1022D4001A0EE82EFED700D0120062C057F063C079
:1022E40058F0000E0001F46F000EF36F8DEF11F043
:1022F40060C041F061C042F0570E436E000E446E60
:1023040064C045F065C046F0ECEC09F041500001B2
:10231400F3274250F42357C0F6FF58C0F7FF000ECE
:10232400F86E0800F5500009D8A49BEF11F09DEF5A
:1023340011F07AEF11F0F3C060F0F4C061F0120014
:102344006A0E0001746F000E756F66C076F067C088
:1023540077F0000E796F000E786F000E7B6F000E21
:102364007A6F760E606F000E616F68C062F069C0AC
:1023740063F0740E646F000E656F6FEC11F0000172
:1023840078516625D96E79516721DA6E000EDF6EB9
:102394001200010E086E200E02180310D8B4D5EFF7
:1023A40011F0D7EF11F0F0EF11F0F70E046EFF0EFD
:1023B400056E02C006F003C007F00450062605505F
:1023C4000722075009E1050E065CD8A0ECEF11F0D6
:1023D400EEEF11F0F0EF11F0000E086E08C002F0FD
:1023E400036A12003A0EF66E260EF76E000EF86EB1
:1023F40000EED7F010EE18F00900F5CFEEFFE5502F
:10240400E150FAE101EE00F0200EEE6AE806FDE18B
:1024140000EEEFF00A0EEE6AE806FDE15A6A596A28
:102424005B905B92000112EF07F0000E116E000E3C
:10243400106E28EF12F00FC002F0036A0DC004F012
:102444000EC005F0D7EC0FF0104A112A10500B24DF
:10245400D96E11500C20DA6EDF500F6E0F50D8A4D5
:1024640036EF12F038EF12F01DEF12F0120015BE25
:1024740046EF12F0155006E11404D8B044EF12F000
:1024840046EF12F054EF12F014C016F015C017F016
:10249400161E171E164A172A16C014F017C015F078
:1024A40058EF12F014C014F015C015F01200D00E3D
:1024B400046EFF0E056E02C006F003C007F0045060
:1024C40006260550072207500AE10A0E065CD8A02A
:1024D4006EEF12F071EF12F0010E72EF12F0000EB7
:1024E400026E036A120002C004F003C005F07DEF1F
:1024F40012F0024A032A02C0D9FF03C0DAFFDF50F8
:10250400D8A487EF12F089EF12F07BEF12F0045099
:10251400025C026E05500358036E12009DEF12F028
:10252400010E036E07C0D9FF08C0DAFFDF50AAEC22
:1025340012F0074A082A07C0D9FF08C0DAFFDF50A3
:10254400D8A4A7EF12F0A9EF12F092EF12F0120044
:10255400066E03B002D07B9C01D07B8C0650F00B3E
:10256400046E04380F0B3BEC11F006500F0B056E94
:1025740005503BEC11F0A00E00D0E82EFDD7120060
:10258400608060B0C8EF12F0CAEF12F0C3EF12F02F
:1025940064CF04F0056A0450FF08046E0550D8A007
:1025A400E82A0008056E04C002F005C003F012001A
:1025B40002500402F3CF06F0F4CF07F002500502F4
:1025C400F350072603500402F350072606C002F016
:1025D40007C003F012007F9087907F9287927994CE
:1025E40081947E9C869C79988198799A819A7E9030
:1025F40086907A9082907A9282921200D6501F0B23
:102604004009D66ED688D650F00B0809D66ED58808
:102614000B0ED46EDB0ED36ED58E120081860E01A6
:1026240092870F015899FC0E5817030E5F6F609440
:102634006088608E12001F001C001F001E001F0017
:102644001E001F001F001E001F001E001F007B84B1
:102654001A0EE82EFED700D07B941A0EE82EFED771
:1026640000D01200F28C0E01298B2B81F28E120005
:02267400120052
:020000040020DA
:10000000FF0FFF0FFF0FFF0FFF0FFF0FFF0FFF0F80
:020000040030CA
:0C000000AAFFFFFF9FFFFFFFFFFFFFFFB5
:00000001FF
